02RETORNO01COBRANCA       00000000000000259423TURBOSEG PROVEDOR DE INTERNET 237BRADESCO       1102090160000000675                                                                                                                                                                                                                                                                          110209         000001
10206093526000140000000902314001135060000000000000000000000091000000000000000009170000000000000000000000000902110209000000009100000000000000000917070609000000000668223700240  000000000000000000000000000000000000000000000000000000000000000000000000000000000000000000000000000000000000000000000                          0000000000                                                                  000002
10206093526000140000000902314001135060000000000000000000000092000000000000000009250000000000000000000000000902110209000000009200000000000000000925070609000000000783223700259  000000000000000000000000000000000000000000000000000000000000000000000000000000000000000000000000000000000000000000000                          0000000000                                                                  000003
10206093526000140000000902314001135060000000000000000000000093000000000000000009330000000000000000000000000902110209000000009300000000000000000933070609000000000306223700240  000000000000000000000000000000000000000000000000000000000000000000000000000000000000000000000000000000000000000000000                          0000000000                                                                  000004
9201237          000000140000000188100000000675          00003000000017576000000000000000000000000000000000000000000000000000000000000000000000000000000000000000000000000000000000000000000                                                                                                                                                                              00000000000000000000000         000005
